:020000040000FA
:08000000803102288731E42F52
:10000A00640080010131890B0628003421009D1407
:10001A009D18102811280D281C08F3001B08F2004F
:10002A007308F1007208F0000800F7007508F6007E
:10003A000530F635FF3E031D1E2876357707803ECC
:10004A0080313A2080310800F4007408F300730804
:10005A00F100403080316E2080310330F300983057
:10006A00890B3528F30B35280800F4007408F300CF
:10007A007308F100003080316E2080310330F300C4
:10008A009830890B4628F30B4628080000302000D8
:10009A00E7008830E800210049082000EA00210032
:1000AA0048082000E90080315C208031080069306E
:1000BA002000EB006B08EE006808E0006708DF002C
:1000CA006E30EB006B08E10000308131562180313F
:1000DA000800F2008F31DD2780317C308F31F32721
:1000EA00803172088F31F327803171088F31F327FD
:1000FA0080318F31E82780310800F4007408F2005B
:10010A007208F3008C280130F2007208F4077408B0
:10011A00860087010108031D9328942888287308FC
:10012A007402F000F101F01BF103080020008C1C9E
:10013A009F28A028AA282530E7008830E8008031C7
:10014A005C20803120000C16B3281F30E70088306D
:10015A00E80080315C20803120000C120800200069
:10016A000C1CB828B928C3281630E7008830E800E4
:10017A0080315C20803120000D10CC280D30E70042
:10018A008830E80080315C20803120000D1408009E
:10019A007408803AF50080307502031DD6280130B4
:1001AA0073020318D928DA28E6287309F5007409B6
:1001BA00F600F50A0319F60A7508F3007608F40042
:1001CA00E6280800F401F501701CEC28ED28F12856
:1001DA007208F4077308F53D0130F235F30D890B07
:1001EA00F2280130F136F00C890BF72870087104F7
:1001FA00031D00290129E9287508F1007408F00097
:10020A0008002000A700A501A6011E292408A100B4
:10021A00A2012108F6002208F7002008A3002308FB
:10022A00F8008131F321813101302000A507003027
:10023A00A63D25082707A100210886008701010895
:10024A00A2002208A4002408031D2C292D290B2909
:10025A0008002000A201A3011B08013EF0000030A3
:10026A0003180130F1007708F3007608F2008031B4
:10027A00E720813171082000A3007008A20023083A
:10028A00FB002208FA000A30FB36FA0C890B4929CE
:10029A007A08A0007B08A1002108F7002008F600D0
:1002AA0008002000E4006008E6005F08E50021007D
:1002BA00A001A10174296530E2006208CF0061083B
:1002CA00E3006308D00064088331B0238131200041
:1002DA004F082100A007200050082100A13D20005E
:1002EA0065088400660885001200031D7D297E29A1
:1002FA006029210021082000E000210020082000B8
:10030A00DF000800383080313A20813139308031BD
:10031A003A208131143080313A2081317330803172
:10032A003A208131523080313A2081316C3080312B
:10033A003A2081310330F6000830F5007730890B16
:10034A00A429F50BA429F60BA42900003830803122
:10035A003A208131013080313A2081310C308031AC
:10036A003A208131080072302100990004302300BC
:10037A008C008D01073021008C0012308D00240082
:10038A00940128309500970113309200093021001A
:10039A009D00C0309E000C302600930025009E016F
:1003AA00043020009C0021005108F3005008F2009C
:1003BA004F08F1004E08F0000030F7001E30F6003A
:1003CA008430F5008030F40082318B22813170084C
:1003DA00FF3E20009B0026009101080078080319BF
:1003EA00F729F829FD297808031DFC29FD29022A85
:1003FA0076088F31D7278131312A7808033E860063
:10040A0087011600010403190B2A0C2A292A7808E5
:10041A00033E86008701403FF900413FFA00780A0F
:10042A0086008701403FFB00413FFC007C08803A80
:10043A00FD007A08803A7D02031D252A79087B028D
:10044A000318282A292A312A780A860087010130C6
:10045A00810741310318810A08002000B0002100F9
:10046A00261C382A392A422A20003008AB002B08D9
:10047A00A00028088131062182312000AA1B462AC1
:10048A00472A4C2A2A08AF002908AE004E2AAE0194
:10049A00AF01AC01AD01622A2030F6000030F7004E
:1004AA0020003008AB002B08F8008131F32182319B
:1004BA0001302000AC070030AD3D2D08803AAB007A
:1004CA002F08803A2B02031D6C2A2E082C02031CCB
:1004DA006F2A702A512A21002618742A752A7E2A20
:1004EA0020003008AB002B08A00028088131062123
:1004FA0082312000280880318220823120002E0893
:10050A007007A8002F08713DA90008000030FC0000
:10051A000030FB000030FA000030F9007308720462
:10052A007104700403199A2A9B2ADC2AFD01FD0A28
:10053A00A92A0130F035F10DF20DF30D890B9F2A2E
:10054A000130F8007808FD07F31FAC2AAD2A9E2A6D
:10055A000130F935FA0DFB0DFC0D890BAE2A730833
:10056A007702031DC22A72087602031DC22A710885
:10057A007502031DC22A70087402031CC52AC62A02
:10058A00CF2A7008F4027108F53B7208F63B73082B
:10059A00F73B79140130F336F20CF10CF00C890BAD
:1005AA00D02A0130FD02031DDB2ADC2AAD2A7C0891
:1005BA00F3007B08F2007A08F1007908F0000800DD
:1005CA002000A101F71FEA2AEB2AF22AF609F70905
:1005DA00F60A0319F70AA101A10AF91FF52AF62A50
:1005EA00FF2AF809F909F80A0319F90A0130FA0089
:1005FA007A08A106A201A301760877040319062B3B
:10060A00072B362BA001A00A132B0130F635F70D64
:10061A00890B0B2B0130FA007A08A007F71F162B5B
:10062A00172B0A2B0130A235A30D890B182B77083B
:10063A007902031D222B76087802031C252B262B10
:10064A002B2B7608F8027708F93B22140130F7368B
:10065A00F60C890B2C2B0130A002031D352B362BEF
:10066A00172B210803193A2B3B2B402BA209A3096C
:10067A00A20A0319A30A2308F7002208F6000800B1
:10068A008131B821833102302100CB000430CA0005
:10069A00BA30890B4E2BCA0B4E2BCB0B4E2B0000BC
:1006AA00813187218331F501003080311A2083316D
:1006BA0080310B2083317008F6007108F700890D2C
:1006CA00893B8909F800F90081312E2183317608A6
:1006DA0026009100F501F50A003080311A20833195
:1006EA0020001B082100CA00CB014A08F6004B086B
:1006FA00F700260011082100CC00CD014C08F000BB
:10070A004D08F1006430F2000030F3008031E72038
:10071A0083317108F9007008F8008231E5228331CB
:10072A0077082100C9007608C80080314B20833140
:10073A00F501003080311A20833180319B208331CA
:10074A00F501073080311A2083318031B42083319A
:10075A005D2B803102282000DE004F0886008701C9
:10076A00403FD100413FD200510884005208850021
:10077A001200253A031DC22BC32B672C4F08860093
:10078A0087010130810741310318810A2100A20142
:10079A00A301A601A701FF30A400FF30A500200095
:1007AA004F0886008701403FD100413FD2005108DF
:1007BA008400520885001200643A0319E52BE62BDF
:1007CA00F72B4F0886008701403FD100413FD200F6
:1007DA0051088400520885001200693A031DF62B5D
:1007EA00F72B322C4F0886008701013081074131EF
:1007FA000318810A500886008701010884008501D0
:10080A0002308107003FD100013FD2005108D600D3
:10081A005208D700890D893B8909D800D900DA0026
:10082A00DB00DC00DD005608B1005708B2005808AA
:10083A00B3005908B4005A08B5005B08B6005C0852
:10084A00B7005D08B8005E0886317626833120003D
:10085A003208D0003108CF008A2C4F088600870161
:10086A00403FD100413FD200510884005208850020
:10087A001200253A031D422C432C5C2C4F0886009B
:10088A0087010130810741310318810A2530F600BA
:10089A000030F7005E08D1005108F8008131F321D9
:1008AA00833101302000CF000030D0008A2C4F085D
:1008BA00860087010130810741310318810ACF017F
:1008CA00D0018A2C4F0886008701403FD100413F62
:1008DA00D20051088400520885000008D300D401D0
:1008EA005308F6005408F7005E08D5005508F800CA
:1008FA008131F321833120004F08860087010130BE
:10090A00810741310318810A562C0800F201283068
:10091A00860000308700473FF000F01F952C962C88
:10092A00B72C2000A809A909AA09AB09AC09AD0985
:10093A00AE09AF09A80A031DB52CA90A031DB52CD7
:10094A00AA0A031DB52CAB0A031DB52CAC0A031D5C
:10095A00B52CAD0A031DB52CAE0A031DB52CAF0A82
:10096A00F201F20A2030860000308700473FF0008B
:10097A00F01FC02CC12CE02C2000A009A109A2095B
:10098A00A309A409A509A609A709A00A031DE02C21
:10099A00A10A031DE02CA20A031DE02CA30A031DD1
:1009AA00E02CA40A031DE02CA50A031DE02CA60ACC
:1009BA00031DE02CA70A2000200821042204230496
:1009CA0024042504260427040319EC2CED2C402DBD
:1009DA00F101F10AFC2CA035A10DA20DA30DA40D65
:1009EA00A50DA60DA70D0130F0007008F107A71F8D
:1009FA00FF2C002DF02C27082F02031D1E2D260880
:100A0A002E02031D1E2D25082D02031D1E2D24084E
:100A1A002C02031D1E2D23082B02031D1E2D220846
:100A2A002A02031D1E2D21082902031D1E2D20083E
:100A3A002802031C212D222D322D2008A80221086C
:100A4A00A93B2208AA3B2308AB3B2408AC3B250858
:100A5A00AD3B2608AE3B2708AF3BA736A60CA50C34
:100A6A00A40CA30CA20CA10CA00C0130F102031DD2
:100A7A003F2D402D002D72080319442D452D632D5D
:100A8A00A809A909AA09AB09AC09AD09AE09AF09B8
:100A9A00A80A031D632DA90A031D632DAA0A031DB3
:100AAA00632DAB0A031D632DAC0A031D632DAD0A2A
:100ABA00031D632DAE0A031D632DAF0A200028080B
:100ACA00A0002908A1002A08A2002B08A3002C08CC
:100ADA00A4002D08A5002E08A6002F08A7000800CC
:100AEA00F2012030860000308700473FF000F01FF7
:100AFA007F2D802DA12D2000A009A109A209A309FB
:100B0A00A409A509A609A709A00A031D9F2DA10AE0
:100B1A00031D9F2DA20A031D9F2DA30A031D9F2DAE
:100B2A00A40A031D9F2DA50A031D9F2DA60A031DB6
:100B3A009F2DA70AF201F20A2830860000308700AA
:100B4A00473FF000F01FAA2DAB2DCE2D2000A8099B
:100B5A00A909AA09AB09AC09AD09AE09AF09A80AE6
:100B6A00031DCA2DA90A031DCA2DAA0A031DCA2DCF
:100B7A00AB0A031DCA2DAC0A031DCA2DAD0A031DFB
:100B8A00CA2DAE0A031DCA2DAF0A0130F000700843
:100B9A00F20673308600003087000830F00000301B
:100BAA001E00F00BD52D2000200821042204230466
:100BBA0024042504260427040319E42DE52D412ED7
:100BCA00F101F10AF42DA035A10DA20DA30DA40D7A
:100BDA00A50DA60DA70D0130F0007008F107A71F9B
:100BEA00F72DF82DE82DF335F40DF50DF60DF70D6B
:100BFA00F80DF90DFA0D27082F02031D1E2E2608DF
:100C0A002E02031D1E2E25082D02031D1E2E24084A
:100C1A002C02031D1E2E23082B02031D1E2E220842
:100C2A002A02031D1E2E21082902031D1E2E20083A
:100C3A002802031C212E222E332E2008A802210866
:100C4A00A93B2208AA3B2308AB3B2408AC3B250856
:100C5A00AD3B2608AE3B2708AF3B7314A736A60C5C
:100C6A00A50CA40CA30CA20CA10CA00C0130F1023F
:100C7A00031D402E412EF82D72080319452E462ECB
:100C8A00642EF309F409F509F609F709F809F909CF
:100C9A00FA09F30A031D642EF40A031D642EF50AE9
:100CAA00031D642EF60A031D642EF70A031D642E23
:100CBA00F80A031D642EF90A031D642EFA0A730842
:100CCA002000A0007408A1007508A2007608A300FD
:100CDA007708A4007808A5007908A6007A08A70072
:100CEA0008002000C0003108C5003208C6003308D9
:100CFA00C7003408C8003508C9003608CA003708D2
:100D0A00CB003808CC004530860000308700473FCA
:100D1A00B900B91B912E932E0130942E0030200079
:100D2A00BA00BB013A08C3003B08C40043084404A4
:100D3A000319A02EA12EBF2EC509C609C709C809C5
:100D4A00C909CA09CB09CC09C50A031DBF2EC60A9F
:100D5A00031DBF2EC70A031DBF2EC80A031DBF2EBF
:100D6A00C90A031DBF2ECA0A031DBF2ECB0A031DC3
:100D7A00BF2ECC0A2100A51BC32EC42EC82EFD30BF
:100D8A00A605FF30A7052508803A2000B900803063
:100D9A003902031DD32E0130210024020318D62E56
:100DAA00D72EDD2E01302000BE000030BF00E52E18
:100DBA00210025082000BF00210024082000BE00D1
:100DCA00210023082000C200210022082000C100BF
:100DDA0043084404031DF22EF32EF82E2100261D8B
:100DEA00F72EF82EFD2EFF302000C107FF30C23D3E
:100DFA001F302000CD000030CE002100C7016D2F2A
:100E0A00FF302000CD07FF30CE3D0A30A000A101FF
:100E1A00A201A301A401A501A601A7014508A800F2
:100E2A004608A9004708AA004808AB004908AC00D0
:100E3A004A08AD004B08AE004C08AF0084318B2441
:100E4A00863120002108F4002008F3008031CD20EB
:100E5A0086317308303E2000B9004D08A83E86004E
:100E6A00870139088100FF30BE07FF30BF3DFF30E0
:100E7A00C107FF30C23D0A30A000A101A201A301AF
:100E8A00A401A501A601A7014508A8004608A900D2
:100E9A004708AA004808AB004908AC004A08AD0058
:100EAA004B08AE004C08AF0085317525863120000D
:100EBA002008C5002108C6002208C7002308C80068
:100ECA002408C9002508CA002608CB002708CC0038
:100EDA0020004E08803AB90080303902031D772F6E
:100EEA0001304D02031C7A2F7B2FA82F20004508C2
:100EFA0046044704480449044A044B044C04031DAD
:100F0A00872F882F052F3F08803AB9008030390291
:100F1A00031D912F01303E020318942F952F052FA0
:100F2A0020004208803AB90080303902031D9F2F01
:100F3A0001304102031CA22FA32FA82F2100A618BB
:100F4A00A72FA82F052F200043084404031DAE2F06
:100F5A00AF2FB42F2100261DB32FB42FD02FFF306F
:100F6A002000CD07FF30CE3D43084404031DBE2FA9
:100F7A00BF2FC42F2B30BC000030BD00C82F2D302E
:100F8A00BC000030BD003C08B9004D08A83E8600F0
:100F9A0087013908810020004D08A83EB9003908A8
:100FAA00A8004208AA004108A9004008823132225A
:100FBA00863120002908B2002808B1000800210063
:100FCA008F31D3278731CE008F31D4278731CF0095
:100FDA008F31D5278731D0008F31D6278731D1007D
:100FEA00A030840000308500283080310520873108
:100FFA0020008331452B503457344D345F34443408
:10100A007534743479343A342534643420340034F1
:10101A00523465347334653474343A344834203481
:10102A000034523465347334653474343A344C348D
:10103A00203400344434693472343A34423400344B
:0C104A004434693472343A3446340034C3
:101FA600B834883400340034F500750880312920AF
:101FB6008F31080020009111240016142000911D75
:101FC600E52FE62FE12F9111080020009111240042
:101FD60016152000911DF02FF12FEC2F91110800FE
:101FE600F000200091117008240091002000911D3E
:0A1FF600FD2FFE2FF92F91110800B6
:020000040001F9
:04000E00A4C9FFFC86
:00000001FF
